{
  "contractName": "Ownable",
  "abi": [
    {
      "constant": false,
      "inputs": [],
      "name": "withdraw",
      "outputs": [],
      "payable": false,
      "stateMutability": "nonpayable",
      "type": "function"
    },
    {
      "constant": true,
      "inputs": [],
      "name": "owner",
      "outputs": [
        {
          "name": "",
          "type": "address"
        }
      ],
      "payable": false,
      "stateMutability": "view",
      "type": "function"
    },
    {
      "constant": false,
      "inputs": [
        {
          "name": "newOwner",
          "type": "address"
        }
      ],
      "name": "transferOwnership",
      "outputs": [],
      "payable": false,
      "stateMutability": "nonpayable",
      "type": "function"
    },
    {
      "inputs": [],
      "payable": false,
      "stateMutability": "nonpayable",
      "type": "constructor"
    },
    {
      "anonymous": false,
      "inputs": [
        {
          "indexed": true,
          "name": "previousOwner",
          "type": "address"
        },
        {
          "indexed": true,
          "name": "newOwner",
          "type": "address"
        }
      ],
      "name": "OwnershipTransferred",
      "type": "event"
    }
  ],
  "bytecode": "0x6060604052341561000f57600080fd5b60008054600160a060020a033316600160a060020a03199091161790556101ea8061003b6000396000f3006060604052600436106100565763ffffffff7c01000000000000000000000000000000000000000000000000000000006000350416633ccfd60b811461005b5780638da5cb5b14610070578063f2fde38b1461009f575b600080fd5b341561006657600080fd5b61006e6100be565b005b341561007b57600080fd5b610083610114565b604051600160a060020a03909116815260200160405180910390f35b34156100aa57600080fd5b61006e600160a060020a0360043516610123565b60005433600160a060020a039081169116146100d957600080fd5b600054600160a060020a039081169030163180156108fc0290604051600060405180830381858888f19350505050151561011257600080fd5b565b600054600160a060020a031681565b60005433600160a060020a0390811691161461013e57600080fd5b600160a060020a038116151561015357600080fd5b600054600160a060020a0380831691167f8be0079c531659141344cd1fd0a4f28419497f9722a3daafe3b4186f6b6457e060405160405180910390a36000805473ffffffffffffffffffffffffffffffffffffffff1916600160a060020a03929092169190911790555600a165627a7a72305820b539416fd36178b1556b69e0f18671410f79f732bcd1df9cdf3dcdc3edf9d2320029",
  "source": "pragma solidity ^0.4.18;\r\n\r\n\r\n/**\r\n * @title Ownable\r\n * @dev The Ownable contract has an owner address, and provides basic authorization control\r\n * functions, this simplifies the implementation of \"user permissions\".\r\n */\r\ncontract Ownable {\r\n    address public owner;\r\n    event OwnershipTransferred(address indexed previousOwner, address indexed newOwner);\r\n\r\n    /**\r\n    * @dev The Ownable constructor sets the original `owner` of the contract to the sender\r\n    * account.\r\n    */\r\n    function Ownable() public {\r\n        owner = msg.sender;\r\n    }\r\n\r\n    /**\r\n    * @dev Throws if called by any account other than the owner.\r\n    */\r\n    modifier onlyOwner() {\r\n        require(msg.sender == owner);\r\n        _;\r\n    }\r\n\r\n    /**\r\n    * @dev Allows the current owner to transfer control of the contract to a newOwner.\r\n    * @param newOwner The address to transfer ownership to.\r\n    */\r\n    function transferOwnership(address newOwner) public onlyOwner {\r\n        require(newOwner != address(0));\r\n        OwnershipTransferred(owner, newOwner);\r\n        owner = newOwner;\r\n    }\r\n\r\n    /**\r\n    * @dev Allows the current owner to transfer balance of the contract to his wallet\r\n    */\r\n    function withdraw() external onlyOwner {\r\n        owner.transfer(this.balance);\r\n    }\r\n}\r\n\r\n/**\r\n * @title Chargable\r\n * @dev The Chargable contract requires\r\n */\r\ncontract Chargable is Ownable {\r\n    int public feeAmount;\r\n    event FeeUpdated(int oldFee, int newFee);\r\n\r\n    /**\r\n    * @dev The Ownable constructor sets the original `owner` of the contract to the sender\r\n    * account.\r\n    */\r\n    function Chargable() public {\r\n        feeAmount = 100 szabo; // around 6 US cents as the time of writing\r\n    }\r\n\r\n    /**\r\n    * @dev Throws if called by any account other than the owner.\r\n    */\r\n    modifier withFee() {\r\n        require(int(msg.value) >= feeAmount);\r\n        _;\r\n    }\r\n\r\n    /**\r\n    * @dev Allows the current owner to update contract transaction fee\r\n    * @param newFee New Fee amount\r\n    */\r\n    function changeFee(int newFee) public onlyOwner {\r\n        require(newFee > 0);\r\n        FeeUpdated(feeAmount, newFee);\r\n        feeAmount = newFee;\r\n    }\r\n}\r\n\r\n/**\r\n * @title This Token Rocks - smart contract for the map\r\n * @dev it allows\r\n *  - owner: to add cities (towers) and get information about them\r\n *  - player: to joing the game and move.\r\n *    Move towards a different team is considered an attack which results\r\n *    in attackers death and getting damage for defender\r\n *  - if player is located in the city (tower), he can set its title or he can\r\n */\r\ncontract ThisTokenRocks is Chargable {\r\n\r\n    // map of our events:\r\n    event CityUpdate(uint32 coord, bytes32 title, uint8 defence);\r\n    event PlayerStart(address indexed player, address token, uint32 indexed coord);\r\n    event PlayerMove(address indexed player, address token, uint32 indexed oldCoord, uint32 indexed newCoord);\r\n    event DefenderDeath(address indexed player, address token, uint32 indexed coord );\r\n    event AttackerDeath(address indexed player, address token, uint32 indexed oldCoord, uint32 indexed newCoord);\r\n    event HealthUpdate(address indexed player, uint32 health);\r\n\r\n    // Events that were used for debugging purposes:\r\n    // event PlayerCellRemoved(address player, address coord);\r\n    // event PlayerCellAdded(address player, address coord, uint32 cellIndex, uint32 len);\r\n    // event PlayerCellTrimmed(address coord, uint len);\r\n    // event DefenderDamage(address defender, int cityDefence, int defenderHealth, int damage);\r\n\r\n    // list of the players\r\n    struct Player {\r\n        // team of the player - which coin this player has joined\r\n        address coin;\r\n        // XY coordinates of the player\r\n        uint32 coord;\r\n        // Stamina/Health of the player that is left\r\n        uint32 health;\r\n        // index in players array on particular cell\r\n        uint32 cellIndex;\r\n    }\r\n    mapping(address => Player) public players;\r\n\r\n    // list of the cities. City is the cell that\r\n    struct City {\r\n        // Coordinate (same as in the key of the mapping)\r\n        uint32 coord;\r\n        // Index in array of citiesIndex\r\n        uint index;\r\n        // Title of the city (could be purchased by player inside)\r\n        bytes32 title;\r\n        // Defence Ratio of the city (could be purchased by player inside)\r\n        uint8 defence;\r\n    }\r\n    mapping(uint32 => City) public cities;\r\n    uint32[] private citiesIndex;\r\n\r\n    // list of occupied game cells. Each cell descriptor contains list of players\r\n    struct Cell {\r\n        // Coin that is place at that cell\r\n        address coin;\r\n        // in perfect world without solidity restrictions - that could be and array\r\n        address[] players;\r\n        // real(!) number of players at that cell\r\n        // we cannot trust players.length as some of the items are remaining empty\r\n        uint num;\r\n    }\r\n    mapping(uint32 => Cell) public cells;\r\n\r\n    function ThisTokenRocks() public {\r\n    }\r\n\r\n    // initialize cell\r\n    function _initCell(uint32 _coord, address _team) private {\r\n        cells[_coord] = Cell({\r\n            coin: _team,\r\n            players: new address[](0),\r\n            num: 0\r\n        }); // no coin, no folks on the start\r\n    }\r\n\r\n    // add player to the cell - only we know for sure\r\n    // that we can do that\r\n    function _removeCellPlayer(uint32 _coord, address _player) private {\r\n         // integrity check - player coordinate should match\r\n        require(players[_player].coord == _coord);\r\n         // integrity check - player should be present in the list in the proper place\r\n        require(cells[_coord].players[players[_player].cellIndex] == _player);\r\n\r\n        cells[_coord].players[players[_player].cellIndex] = address(0x0);\r\n\r\n        // now we should trim the last elements if they are zero addresses\r\n        uint len = cells[_coord].players.length;\r\n        while (len >= 1) {\r\n            if (cells[_coord].players[len - 1] == address(0x0)) {\r\n                delete cells[_coord].players[len - 1];\r\n                cells[_coord].players.length --;\r\n                // PlayerCellTrimmed(_coord, cells[_coord].players.length);\r\n            } else {\r\n                break;\r\n            }\r\n            len--;\r\n        }\r\n        // and check - if the last player has left the cell,\r\n        // it should reset the team counter - cell becomes available\r\n        if (len == 0) {\r\n            cells[_coord].coin = 0x0;\r\n        }\r\n\r\n        players[_player].cellIndex = 0; // not necessary\r\n        cells[_coord].num --;\r\n        // PlayerCellRemoved(_player, _coord);\r\n    }\r\n\r\n    // add player to the cell - only we know for sure\r\n    // that we can do that - cell must be initialized\r\n    // and match players team\r\n    function _addCellPlayer(uint32 _coord, address _player) private {\r\n        uint32 len = uint32(cells[_coord].players.length);\r\n        if (len == 0) {\r\n            cells[_coord].coin = players[_player].coin;\r\n        }\r\n        cells[_coord].players.push(_player);\r\n        cells[_coord].num ++;\r\n        players[_player].coord = _coord;\r\n        players[_player].cellIndex = len;\r\n        // PlayerCellAdded(_player, _coord, len, uint32(cells[_coord].players.length));\r\n    }\r\n\r\n    function getCellPlayers(uint32 _coord) view public returns(address[]) {\r\n        return cells[_coord].players;\r\n    }\r\n\r\n    /**\r\n     * Admin only: adding single city to the map\r\n     */\r\n    function _addCity(uint32 _coord) private {\r\n        _initCell(_coord, address(0x0));\r\n        cities[_coord] = City({\r\n            coord: _coord,\r\n            index: citiesIndex.length,\r\n            title: 0x0,\r\n            defence: 1 // every city has a defence of 1 by default\r\n        });\r\n        citiesIndex.push(_coord);\r\n        CityUpdate(_coord, 0x0, 1);\r\n    }\r\n    /**\r\n     * Admin only: adding multiple cities to the map.\r\n     * Adding it one by one requres too much gas\r\n     */\r\n    function addCities(uint32[] _coords) onlyOwner public {\r\n        for (uint i = 0; i < _coords.length; i++) {\r\n            _addCity(_coords[i]);\r\n        }\r\n    }\r\n    /**\r\n     * Getting how many cities do we have\r\n     */\r\n    function getCitiesCount() public constant returns(uint count) {\r\n        return citiesIndex.length;\r\n    }\r\n    /**\r\n     * Getting coordinates of the city at certain index\r\n     */\r\n    function getCityCoordAtIndex(uint index) public constant returns(uint32) {\r\n        return citiesIndex[index];\r\n    }\r\n\r\n    function _requireCity(uint32 coord) view private {\r\n        // on start up, cities defence is 1, so comparison to zero\r\n        // can be a check for presence\r\n        require(cities[coord].defence > 0);\r\n    }\r\n\r\n    // require that player has already joined\r\n    // returns coordinates of where the player is located\r\n    function _requirePlayer(address p) view private returns (uint32) {\r\n        require(p != address(0x0));\r\n        require(players[p].coin != address(0x0));\r\n        return players[p].coord;\r\n    }\r\n\r\n    // Buying Name / Label for the city where you are located\r\n    function setTitle(bytes32 _title) payable withFee public {\r\n        // getting coordinates of the current player\r\n        uint32 coord = _requirePlayer(msg.sender);\r\n        // ensure these are coordinates of a real city\r\n        _requireCity(coord);\r\n        // setting city label/title\r\n        cities[coord].title = _title;\r\n        CityUpdate(coord, cities[coord].title, cities[coord].defence);\r\n    }\r\n\r\n    // adding defence for the city\r\n    function addDefence() payable withFee public {\r\n        // getting coordinates of the current player\r\n        uint32 coord = _requirePlayer(msg.sender);\r\n        // ensure these are coordinates of a real city\r\n        _requireCity(coord);\r\n        // the defence cannot exceed 8\r\n        uint8 defence = cities[coord].defence;\r\n        require(defence < 8);\r\n        // city players must qualify for upgrade: there should be min amount of people on that cell\r\n        // before level upgrade\r\n        // - - - - - - commented out for beta-testing - - - - - - //\r\n        uint num = cells[coord].num;\r\n        if (defence == 2) { \r\n            require(num >= 10); \r\n        } else if (defence == 3) { \r\n            require(num >= 50); \r\n        } else if (defence == 4) { \r\n            require(num >= 100); \r\n        } else if (defence == 5) { \r\n            require(num >= 250); \r\n        } else if (defence == 6) { \r\n            require(num >= 1000); \r\n        } else if (defence == 7) {\r\n            require(num >= 2500); \r\n        }\r\n        // increase defence\r\n        cities[coord].defence = defence + 1;\r\n        CityUpdate(coord, cities[coord].title, cities[coord].defence);\r\n    }\r\n\r\n    // start: join the game under certain coin/team\r\n    // jump into certain coordinates\r\n    function start(address _team, uint32 _coord) payable withFee public {\r\n        // require totally new player\r\n        require(msg.sender != address(0x0));\r\n        require(players[msg.sender].coin == address(0x0)); // check for duplicate key\r\n        // require empty cell or same team\r\n        if (cells[_coord].coin == address(0x0)) {\r\n            _initCell(_coord, _team);\r\n        } else {\r\n            require(cells[_coord].coin == _team);\r\n        }\r\n        // register new player\r\n        players[msg.sender] = Player(_team, _coord, 100, 0);\r\n        _addCellPlayer(_coord, msg.sender);\r\n        PlayerStart(msg.sender, _team, _coord);\r\n    }\r\n\r\n    // - - - - - - - - - - - - - - - - - - - - - - - - - - - - - - - - - - - - - - - -\r\n    // methods below are not tested much... must have better unit test coverage\r\n    // - - - - - - - - - - - - - - - - - - - - - - - - - - - - - - - - - - - - - - - -\r\n    function _requireDefender(uint32 _coord) view private returns (address) {\r\n        uint len = cells[_coord].players.length;\r\n        return cells[_coord].players[len - 1];\r\n    }\r\n\r\n    function _attack(address _attacker, uint32 _coord) private { //  _attacker newCoord\r\n        // who is under attack? define the player that will be hit\r\n        address defender = _requireDefender(_coord);\r\n        address attackerTeam = players[_attacker].coin;\r\n        address defenderTeam = players[defender].coin;\r\n        int defenderHealth = int(players[defender].health);\r\n        int cityDefence = int(cities[_coord].defence); // 0 (no city) 1 (x2) 8 (x8)\r\n\r\n        // attacker always dies (first)\r\n        uint32 oldCoord = players[_attacker].coord;\r\n        players[_attacker].health = 0;\r\n        players[_attacker].coin = address(0x0);\r\n        _removeCellPlayer(oldCoord, _attacker);\r\n        AttackerDeath(_attacker, attackerTeam, oldCoord, _coord);\r\n\r\n        // attack on plain surface takes 60 health of defender.\r\n        // defender dies on the second attack (together with attacker who always dies)\r\n        int damage = 60 / ( 1 + cityDefence );\r\n        // DefenderDamage(defender, cityDefence, defenderHealth, damage);\r\n\r\n        // define whether defender died\r\n        if (damage >= defenderHealth) {\r\n            _removeCellPlayer(_coord, defender);\r\n            players[defender].health = 0;\r\n            players[defender].coin = address(0x0);\r\n            DefenderDeath(defender, defenderTeam, _coord);\r\n        } else {\r\n            // if defender is alive, but his health is decreased\r\n            players[defender].health = uint32(defenderHealth - damage);\r\n            HealthUpdate(defender, players[defender].health);\r\n        }\r\n    }\r\n\r\n    // check that this is a valid move between adjacent cells\r\n    function _requireValidMove(uint32 _from, uint32 _to) pure private {\r\n        uint32 fromX = _from & 0xFFFF;\r\n        uint32 fromY = _from >> 16;\r\n        uint32 toX = _to & 0xFFFF;\r\n        uint32 toY = _to >> 16;\r\n        // do not allow to stay on same cell\r\n        require(fromX != toX || fromY != toY);\r\n        // require that the cell is adjacent\r\n        // (coordinates are a bit tricky, there is a difference between even and odd map rows)\r\n        if ((fromY % 2) == 0) {\r\n            require((toX == (fromX-1) && toY == (fromY-1)) || (toX == (fromX-1) && toY == (fromY+1)) || (toX == fromX && toY == (fromY-1)) || (toX == fromX && toY == (fromY+1)));\r\n        } else {\r\n            require((toX == fromX && toY == (fromY-1)) || (toX == fromX && toY == (fromY+1)) || (toX == (fromX+1) && toY == (fromY-1)) || (toX == (fromX+1) && toY == (fromY+1)));\r\n        }\r\n    }\r\n\r\n    // move to another cell\r\n    // in case of another team presence it is considered to be an \"attack\"\r\n    function move(uint32 _newCoord) payable withFee public {\r\n        uint32 oldCoord = _requirePlayer(msg.sender);\r\n        _requireValidMove(oldCoord, _newCoord); // check that this move is possible\r\n        address team = cells[_newCoord].coin;\r\n        address playerTeam = players[msg.sender].coin;\r\n        bool isOccupied = (team != address(0x0));\r\n        if (isOccupied) {\r\n            bool hasEnemy = (team != playerTeam);\r\n            if (hasEnemy) {\r\n                _attack(msg.sender, _newCoord);\r\n            } else {\r\n                _removeCellPlayer(oldCoord, msg.sender);\r\n                _addCellPlayer(_newCoord, msg.sender);\r\n                PlayerMove(msg.sender, playerTeam, oldCoord, _newCoord);\r\n            }\r\n        } else {\r\n            _removeCellPlayer(oldCoord, msg.sender);\r\n            _initCell(_newCoord, playerTeam);\r\n            _addCellPlayer(_newCoord, msg.sender);\r\n            PlayerMove(msg.sender, playerTeam, oldCoord, _newCoord);\r\n        }\r\n    }\r\n\r\n}\r\n",
  "sourcePath": "D:\\src\\cloud\\thistokenrocks\\smart_contract\\contracts\\ThisTokenRocks.sol",
  "compiler": {
    "name": "solc",
    "version": "0.4.18+commit.9cf6e910.Emscripten.clang"
  },
  "schemaVersion": "1.0.1",
  "updatedAt": "2018-03-21T09:04:11.439Z"
}